:100000000C9434000C94F10D0C94180E0C945100C7
:100010000C9451000C9451000C9451000C940F0B53
:100020000C94380B0C94610B0C94090C0C94320C4E
:100030000C945B0C0C94840C0C94160D0C943F0DDA
:100040000C94680D0C9451000C94E5090C94110A61
:100050000C943A0A0C94D20F0C9451000C94510059
:100060000C9451000C94510011241FBECFEFD8E026
:10007000DEBFCDBF12E0A0E0B1E0E6E6F0E402C0F2
:1000800005900D92A23AB107D9F715E0A2EAB2E0C5
:1000900001C01D92A231B107E1F70E94CC1A0C9465
:1000A00031200C940000EF92FF920F931F937B017D
:1000B0008C0120E030E040E05FE40E94FF038823F1
:1000C0008CF0C801B70120E030E040E05FE40E941E
:1000D000CB010E94BD049B01AC0120503040404048
:1000E000504806C0C801B7010E94BD049B01AC0185
:1000F000B901CA011F910F91FF90EF900895A0E000
:10010000B0E0E5E8F0E00C947B1CDC012B01FA0187
:100110009C91923008F439C1EB018881823008F457
:1001200033C1943069F4843009F02FC111969C9149
:1001300011978981981709F428C1A8E9B1E025C170
:10014000843009F421C18230A9F4923009F01DC134
:100150009A01AD0188E0EA010990AE01E901099236
:100160009E018150C1F7E201898111969C918923FA
:10017000818308C1923009F407C112962D903C90FA
:100180001397EB018A819B811496AD90BD90CD9021
:10019000DC901797EC80FD800E811F819101281B58
:1001A000390BB90137FF04C066277727621B730B31
:1001B000603271050CF061C0121613066CF5370140
:1001C0004801062E04C096948794779467940A9405
:1001D000D2F721E030E040E050E004C0220F331FAE
:1001E000441F551F6A95D2F721503040404050407F
:1001F0002E213F2140235123211531054105510571
:1002000021F021E030E040E050E079018A01E62869
:10021000F728082919293CC0232BD1F1260E371EB7
:1002200035014601062E04C096948794779467940E
:100230000A94D2F721E030E040E050E004C0220F01
:10024000331F441F551F6A95D2F72150304040405C
:1002500050402A213B214C215D21211531054105CA
:10026000510521F021E030E040E050E059016A0101
:10027000A628B728C828D9280BC0821593052CF0CA
:100280001C01AA24BB24650103C0EE24FF248701BE
:1002900011969C91D20111968C91981709F445C042
:1002A000992339F0A80197012A193B094C095D09E6
:1002B00006C0A60195012E193F09400B510B57FDB1
:1002C00008C0118233822282248335834683578378
:1002D0001DC081E081833382228288279927DC0137
:1002E000821B930BA40BB50B84839583A683B783E2
:1002F0000DC0220F331F441F551F248335834683AF
:1003000057838281938101979383828324813581EE
:1003100046815781DA01C9010197A109B1098F5FAF
:100320009F4FAF4FBF4328F30BC09183338222828C
:10033000EA0CFB1C0C1D1D1DE482F582068317834D
:1003400083E08083248135814681578157FF1AC01D
:10035000C901AA2797FDA095BA2F81709070A0704F
:10036000B0705695479537952795822B932BA42BE4
:10037000B52B84839583A683B7838281938101966D
:1003800093838283DF0101C0D201CD01CDB7DEB7F7
:10039000E2E10C94971CA0E2B0E0E1EDF1E00C94F6
:1003A000871C69837A838B839C832D833E834F8351
:1003B0005887E9E0EE2EF12CEC0EFD1ECE010196E1
:1003C000B7010E94AE068E010F5E1F4FCE0105964B
:1003D000B8010E94AE068A8991E089278A8BC701FD
:1003E000B801AE01475E5F4F0E947F000E94D905B1
:1003F000A096E6E00C94A31CA0E2B0E0E2E0F2E0FC
:100400000C94871C69837A838B839C832D833E8322
:100410004F835887F9E0EF2EF12CEC0EFD1ECE0134
:100420000196B7010E94AE068E010F5E1F4FCE01EE
:100430000596B8010E94AE06C701B801AE01475E3D
:100440005F4F0E947F000E94D905A096E6E00C94C1
:10045000A31CA0E2B0E0EFE2F2E00C947B1C698305
:100460007A838B839C832D833E834F835887CE0171
:100470000196BE01675F7F4F0E94AE06CE010596D2
:10048000BE016F5E7F4F0E94AE069985923088F064
:1004900089898230C8F0943019F4823051F404C054
:1004A000843029F4923081F488E991E0C6C092301A
:1004B00049F420E09A858A89981321E02A87CE01A1
:1004C0000996BBC0823049F420E09A858A89981346
:1004D00021E02A8BCE014196B0C02D843E844F840A
:1004E00058886D887E888F88988CEE24FF24870139
:1004F000AA24BB24650140E050E060E070E0E0E049
:10050000F0E0C10181709070892BE9F0E60CF71CD6
:10051000081D191D9A01AB012A0D3B1D4C1D5D1DC7
:1005200080E090E0A0E0B0E0E614F70408051905CB
:1005300020F481E090E0A0E0B0E0BA01A901480F0A
:10054000591F6A1F7B1FAA0CBB1CCC1CDD1C97FE0D
:1005500008C081E090E0A0E0B0E0A82AB92ACA2A49
:10056000DB2A3196E032F10549F0660C771C881CD5
:10057000991C5694479437942794C3CFFA85EA89F7
:100580002B893C898B859C85280F391F2E5F3F4F17
:1005900017C0CA0181709070892B61F0169507957C
:1005A000F794E79480E090E0A0E0B0E8E82AF92A28
:1005B0000A2B1B2B76956795579547952F5F3F4FD5
:1005C00077FDE7CF0CC0440F551F661F771F17FD3F
:1005D0004160EE0CFF1C001F111F215030404030C5
:1005E00090E0590790E0690790E4790760F32B8F5A
:1005F0003C8FDB01CA018F779070A070B07080349F
:100600009105A105B10561F447FD0AC0E114F104AB
:100610000105110529F0405C5F4F6F4F7F4F407817
:100620001A8EFE1711F081E08A8F4D8F5E8F6F8FCB
:1006300078A383E0898FCE0149960E94D905A096C0
:10064000E2E10C94971CA8E1B0E0E9E2F3E00C943D
:10065000831C69837A838B839C832D833E834F83A2
:100660005887B9E0EB2EF12CEC0EFD1ECE01019661
:10067000B7010E94AE068E010F5E1F4FCE01059698
:10068000B8010E94AE062985223008F47EC039895F
:10069000323010F4B8017CC08A859A8989278A870C
:1006A000243011F0223031F4231709F06EC068E9CC
:1006B00071E06EC0343039F41D861E861F86188A9C
:1006C0001C861B8604C0323021F484E08987B70180
:1006D0005FC02B853C858B899C89281B390B3C8707
:1006E0002B87ED84FE840F851889AD88BE88CF885E
:1006F000D88CEA14FB040C051D0540F4EE0CFF1C1D
:10070000001F111F215030403C872B8720E030E034
:1007100040E050E080E090E0A0E0B0E460E070E015
:10072000EA14FB040C051D0540F0282B392B4A2B3D
:100730005B2BEA18FB080C091D09B695A795979540
:100740008795EE0CFF1C001F111F6F5F7F4F6F31ED
:10075000710531F7DA01C9018F779070A070B07020
:1007600080349105A105B10561F427FD0AC0E114AB
:10077000F1040105110529F0205C3F4F4F4F5F4FF9
:1007800020782D873E874F87588BBE01675F7F4F4C
:10079000CB010E94D9056896EAE00C949F1CA8E161
:1007A000B0E0E5EDF3E00C94871C69837A838B83DA
:1007B0009C832D833E834F83588789E0E82EF12C5C
:1007C000EC0EFD1ECE010196B7010E94AE068E0111
:1007D0000F5E1F4FCE010596B8010E94AE068985B7
:1007E000823040F08989823028F0C701B8010E9428
:1007F000260701C08FEF6896E6E00C94A31CA8E1E1
:10080000B0E0E5E0F4E00C94871C69837A838B8385
:100810009C832D833E834F83588789E0E82EF12CFB
:10082000EC0EFD1ECE010196B7010E94AE068E01B0
:100830000F5E1F4FCE010596B8010E94AE06898556
:10084000823040F08989823028F0C701B8010E94C7
:10085000260701C08FEF6896E6E00C94A31CA8E180
:10086000B0E0E5E3F4E00C94871C69837A838B8322
:100870009C832D833E834F83588789E0E82EF12C9B
:10088000EC0EFD1ECE010196B7010E94AE068E0150
:100890000F5E1F4FCE010596B8010E94AE068985F6
:1008A000823040F08989823028F0C701B8010E9467
:1008B000260701C081E06896E6E00C94A31CA8E03E
:1008C000B0E0E5E6F4E00C94841C9B01AC0183E00D
:1008D0008983DA01C9018827B7FD83959927AA275B
:1008E000BB27B82E211531054105510519F482E0C9
:1008F00089833AC08823A9F0203080E0380780E05F
:10090000480780E8580729F460E070E080E09FEC39
:1009100030C0EE24FF248701E21AF30A040B150B02
:1009200002C079018A018EE1C82ED12CDC82CB82F3
:10093000ED82FE820F831887C801B7010E948A05E5
:1009400001971816190684F4082E04C0EE0CFF1C3B
:10095000001F111F0A94D2F7ED82FE820F831887C1
:10096000C81AD90ADC82CB82BA82CE0101960E94D3
:10097000D9052896E9E00C94A01CACE0B0E0E3ECCB
:10098000F4E00C948B1C69837A838B839C83CE0167
:100990000196BE016B5F7F4F0E94AE068D81823053
:1009A00061F1823050F1843021F48E81882351F13D
:1009B0002EC02F81388537FD20C06E812F31310543
:1009C0001CF06623F9F023C08EE190E0821B930BAC
:1009D00029853A854B855C8504C0569547953795A2
:1009E00027958A95D2F76623B1F0509540953095BA
:1009F00021953F4F4F4F5F4F0EC020E030E040E069
:100A000050E009C02FEF3FEF4FEF5FE704C020E059
:100A100030E040E050E8B901CA012C96E2E00C94C5
:100A2000A71CA8E0B0E0E7E1F5E00C94831C7B0193
:100A30008C01611571058105910519F482E08983A6
:100A400060C083E089838EE1C82ED12CDC82CB820A
:100A5000ED82FE820F831887C801B7010E948A05C4
:100A6000FC013197F7FF3BC0222733272E1B3F0B9A
:100A700057016801022E04C0D694C794B794A79476
:100A80000A94D2F740E050E060E070E081E090E04E
:100A9000A0E0B0E004C0880F991FAA1FBB1F2A95D1
:100AA000D2F70197A109B1098E219F21A023B1237B
:100AB0000097A105B10521F041E050E060E070E051
:100AC0004A295B296C297D294D835E836F83788752
:100AD0008EE190E08E1B9F0B9C838B8312C030971E
:100AE00081F00E2E04C0EE0CFF1C001F111F0A9493
:100AF000D2F7ED82FE820F831887CE1ADF0ADC82DE
:100B0000CB821A82CE0101960E94D9052896EAE08E
:100B10000C949F1CEF92FF920F931F937B018C010B
:100B200080E0E81680E0F80681E0080780E018071A
:100B300088F48FEFE816F1040105110531F028F073
:100B400088E090E0A0E0B0E017C080E090E0A0E096
:100B5000B0E012C080E0E81680E0F80680E0080708
:100B600081E0180728F088E190E0A0E0B0E004C040
:100B700080E190E0A0E0B0E020E230E040E050E032
:100B8000281B390B4A0B5B0B04C016950795F7948D
:100B9000E7948A95D2F7F701E056FE4F8081281B33
:100BA000310941095109C9011F910F91FF90EF903F
:100BB0000895DF92EF92FF920F931F93FC01E48060
:100BC000F58006811781D1808081823048F480E0F1
:100BD00090E0A0E1B0E0E82AF92A0A2B1B2BA5C07F
:100BE000843009F49FC0823021F4EE24FF24870171
:100BF00005C0E114F1040105110519F4E0E0F0E08D
:100C000096C0628173819FEF623879070CF05BC0F8
:100C100022E83FEF261B370B2A3131052CF020E06C
:100C200030E040E050E02AC0B801A701022E04C025
:100C300076956795579547950A94D2F781E090E0AD
:100C4000A0E0B0E004C0880F991FAA1FBB1F2A951F
:100C5000D2F70197A109B1098E219F21A023B123C9
:100C60000097A105B10521F081E090E0A0E0B0E09F
:100C70009A01AB01282B392B4A2B5B2BDA01C901D6
:100C80008F779070A070B07080349105A105B10588
:100C900039F427FF09C0205C3F4F4F4F5F4F04C01E
:100CA000215C3F4F4F4F5F4FE0E0F0E02030A0E08D
:100CB0003A07A0E04A07A0E45A0710F0E1E0F0E0AC
:100CC00079018A0127C06038710564F5FB01E1589C
:100CD000FF4FD801C7018F779070A070B07080343B
:100CE0009105A105B10539F4E7FE0DC080E490E05F
:100CF000A0E0B0E004C08FE390E0A0E0B0E0E80E38
:100D0000F91E0A1F1B1F17FF05C016950795F794BC
:100D1000E794319687E016950795F794E7948A95BE
:100D2000D1F705C0EE24FF248701EFEFF0E06E2F2E
:100D3000679566276795902F9F77D794DD24D79482
:100D40008E2F8695492F462B582F5D29B701CA0152
:100D50001F910F91FF90EF90DF900895FC01DB0150
:100D6000408151812281622F6F7770E0221F2227FC
:100D7000221F9381892F880F822B282F30E0991F03
:100D80009927991F11969C93119721153105A9F563
:100D9000411551056105710511F482E037C082E803
:100DA0009FEF13969C938E9312979A01AB0167E085
:100DB000220F331F441F551F6A95D1F783E08C9390
:100DC0000DC0220F331F441F551F12968D919C9109
:100DD0001397019713969C938E931297203080E07F
:100DE000380780E0480780E4580758F314962D939D
:100DF0003D934D935C93179708952F3F310579F4F8
:100E0000411551056105710519F484E08C9308952D
:100E100064FF03C081E08C9312C01C9210C02F5756
:100E2000304013963C932E93129783E08C9387E087
:100E3000440F551F661F771F8A95D1F7706414966B
:100E40004D935D936D937C93179708951F93DC01E9
:100E5000FB019C91923008F447C08081823008F4F5
:100E600043C0943051F411961C91843099F58181DE
:100E7000682F70E0611B71093FC0843021F092300F
:100E800031F48230B9F18181882389F12DC0119626
:100E90001C9111978230F1F081811817D9F41296C4
:100EA0002D913C911397828193818217930794F03F
:100EB00028173907BCF014968D919D910D90BC9127
:100EC000A02D2481358146815781281739074A078B
:100ED0005B0718F4112341F00AC082179307A40797
:100EE000B50740F4112319F061E070E005C06FEF21
:100EF0007FEF02C060E070E0CB011F910895609128
:100F0000A2027091A3028091A4029091A50208957B
:100F10000E94F30C08950E94EC0C08950E94D10CDD
:100F20008AE997E00E940F0D86E00E94F90C0E946A
:100F3000EC0C08958091A2029091A302A091A402CA
:100F4000B091A5020196A11DB11D8093A2029093BC
:100F5000A302A093A402B093A50286E00E94F90C1C
:100F600008952DB73EB72A5030400FB6F8943EBFD3
:100F70000FBE2DBFEDB7FEB73196ADB7BEB7129617
:100F80007C936E9311974283138220E031E0358386
:100F9000248386831782908711860E94BB1C2DB7FD
:100FA0003EB7265F3F4F0FB6F8943EBF0FBE2DBF32
:100FB0000895ADB7BEB71A970FB6F894BEBF0FBE6F
:100FC000ADBFEDB7FEB7319612965C934E93119775
:100FD0002283138220E131E0358324836683778383
:100FE000808791870E94BB1CEDB7FEB73A960FB67B
:100FF000F894FEBF0FBEEDBF08952DB73EB7285041
:1010000030400FB6F8943EBF0FBE2DBFEDB7FEB710
:101010003196ADB7BEB712967C936E93119742830B
:10102000138224E131E035832483868317820E9472
:10103000BB1C2DB73EB7285F3F4F0FB6F8943EBF9D
:101040000FBE2DBF08952F923F924F925F926F92E5
:101050007F928F929F92AF92BF92CF92DF92EF9248
:10106000FF920F931F93DF93CF93CDB7DEB7A39774
:101070000FB6F894DEBF0FBECDBFA88AB98ACA8A60
:10108000DB8AEC8AFD8A0E8B1F8B288F398F4A8F63
:101090005B8F6C8F7D8F8E8F9F8FC888D988EA88F1
:1010A000FB882C883D884E885F88888D998DAA8D15
:1010B000BB8D88A399A3AAA3BBA3C701B6010E94B5
:1010C000BD04ADB7BEB71A970FB6F894BEBF0FBE3A
:1010D000ADBF0DB71EB70F5F1F4FE1E0F0E0EC0FA3
:1010E000FD1F1296FC93EE93119735E0632E712C41
:1010F000D80113967C926E92129727E1A22E21E0DE
:10110000B22E1596BC92AE92149717967C936E935E
:101110001697882777FD8095982F0E945F049B0182
:10112000AC01C701B6010E94CB0120E030E048ECE1
:1011300052E40E9429020E94BD04F8017187608771
:101140000E94BB1CC201B1010E94BD040DB71EB7B5
:101150000F5F1F4F96E0C92ED12CCC0EDD1EADB710
:10116000BEB71296DC92CE921197F801738262821A
:10117000B582A48277836683882777FD8095982F30
:101180000E945F049B01AC01C201B1010E94CB012E
:1011900020E030E048EC52E40E9429020E94BD04A5
:1011A000D80119967C936E9318970E94BB1C68A176
:1011B00079A18AA19BA10E94BD040DB71EB70F5F44
:1011C0001F4F8BE0E82EF12CEC0EFD1EEDB7FEB7A5
:1011D000F282E182D80113967C926E921297159654
:1011E000BC92AE92149717967C936E9316978827AD
:1011F00077FD8095982F0E945F049B01AC0168A148
:1012000079A18AA19BA10E94CB0120E030E048ECAB
:1012100052E40E9429020E94BD04F8017187608790
:101220000E94BB1C00D0EDB7FEB73196ADB7BEB77C
:1012300012969C928E92119788AD828313828FE1D1
:1012400091E09583848321E030E02C0F3D1F3783AC
:101250002683D186C086F386E2860E94BB1C8DB7AA
:101260009EB70C960FB6F8949EBF0FBE8DBFA39687
:101270000FB6F894DEBF0FBECDBFCF91DF911F91A7
:101280000F91FF90EF90DF90CF90BF90AF909F9025
:101290008F907F906F905F904F903F902F90089528
:1012A0000F93ADB7BEB71E970FB6F894BEBF0FBE73
:1012B000ADBFEDB7FEB7319612963C932E931197C2
:1012C0000283138226E331E03583248327E531E06E
:1012D0003783268391878087738762875587448702
:1012E0000E94BB1CEDB7FEB73E960FB6F894FEBF4A
:1012F0000FBEEDBF0F9108958534910519F485E077
:101300008093A0020895089508950E94DB1890E04C
:10131000803209F491E0892F08958CE799E00E94CA
:10132000D809089581B5886081BD089588E181BD9F
:1013300011BC089591B5987F91BD91B5982B91BD41
:101340000895982F8091C00085FFFCCF9093C60030
:101350000895AC0120E007C08091C00085FFFCCF5C
:10136000E093C6002F5FFA01E20FF11DE081EE234A
:1013700099F708958091C00087FFFCCF8091C60047
:1013800090E00895AC0120E08091C00087FFFCCF81
:101390008091C600FA01E20FF11D8083882311F0CD
:1013A0002F5FF2CF08959093A9028093A802089529
:1013B0009093A7028093A60208959093AB02809326
:1013C000AA0208958093C60008951F920F920FB647
:1013D0000F9211242F933F934F935F936F937F93BB
:1013E0008F939F93AF93BF93EF93FF93E091A602E8
:1013F000F091A702309721F08091C60090E0099506
:10140000FF91EF91BF91AF919F918F917F916F91DC
:101410005F914F913F912F910F900FBE0F901F90B2
:1014200018951F920F920FB60F9211242F933F938E
:101430004F935F936F937F938F939F93AF93BF93DC
:10144000EF93FF93E091AA02F091AB02309709F07D
:101450000995FF91EF91BF91AF919F918F917F91EE
:101460006F915F914F913F912F910F900FBE0F9011
:101470001F9018951F920F920FB60F9211242F9361
:101480003F934F935F936F937F938F939F93AF930C
:10149000BF93EF93FF93E091A802F091A9023097D8
:1014A00009F00995FF91EF91BF91AF919F918F91B5
:1014B0007F916F915F914F913F912F910F900FBE50
:1014C0000F901F901895E1ECF0E0108220812869C0
:1014D0002083E2ECF0E010821082208126602083DD
:1014E0009093C5008093C40082E061E041E00E94D7
:1014F000630E82E060E040E00E94630E089582E0A7
:101500008093B80083E08093BA0084E08093BC00AD
:10151000089584EA8093BC008091BC0087FFFCCFD3
:10152000089584E98093BC0008958093BB0084E80B
:101530008093BC008091BC0087FFFCCF0895880F8A
:10154000862B8093BB0084E88093BC008091BC0014
:1015500087FFFCCF089584EC8093BC008091BC0091
:1015600087FFFCCF8091BB00089584E88093BC0086
:101570008091BC0087FFFCCF8091BB0008958091D3
:10158000BC0080688093BC008091BC0087FFFCCFCA
:101590008091BB0008958091B900887F0895E0EBA9
:1015A000F0E080818C7F808380818083E0E7F0E0C1
:1015B000808181608083E1EBF0E080818F7B80839C
:1015C00080818F7780830895E1EBF0E08081887FD0
:1015D00080838081876080830895E1EBF0E08081E3
:1015E000887F80838081808308958093B2000895EE
:1015F0008093B30008958093B40008959093AF0250
:101600008093AE0208959093B1028093B002089542
:101610009093AD028093AC020895089508951F92AF
:101620000F920FB60F9211242F933F934F935F9316
:101630006F937F938F939F93AF93BF93EF93FF939A
:10164000E091AE02F091AF02309709F00995FF9159
:10165000EF91BF91AF919F918F917F916F915F912A
:101660004F913F912F910F900FBE0F901F901895A3
:101670001F920F920FB60F9211242F933F934F9307
:101680005F936F937F938F939F93AF93BF93EF93EA
:10169000FF93E091B002F091B102309709F0099503
:1016A000FF91EF91BF91AF919F918F917F916F913A
:1016B0005F914F913F912F910F900FBE0F901F9010
:1016C00018951F920F920FB60F9211242F933F93EC
:1016D0004F935F936F937F938F939F93AF93BF933A
:1016E000EF93FF93E091AC02F091AD02309709F0D7
:1016F0000995FF91EF91BF91AF919F918F917F914C
:101700006F915F914F913F912F910F900FBE0F906E
:101710001F901895E0E8F0E080818C7F8083A1E83D
:10172000B0E08C91877E8C9380818F7080838081E4
:10173000808380818083EFE6F0E080818160808318
:10174000E2E8F0E080818F7B808380818F778083E7
:101750000895E1E8F0E08081887F80838081856062
:1017600080830895E1E8F0E08081887F8083808134
:1017700080830895909385008093840008959093CA
:10178000890080938800089590938B0080938A004D
:1017900008959093B3028093B20208959093B50296
:1017A0008093B40208959093B7028093B60208958F
:1017B0009093B9028093B802089510928900109214
:1017C0008800089510928B0010928A0008959093DB
:1017D0008700809386000895EFE6F0E080818F7D9A
:1017E00080830895882319F0813061F406C08091C8
:1017F00081008F7B809381000895809181008064B7
:101800008093810008952091860030918700C9015E
:1018100008951F920F920FB60F9211242F933F93AA
:101820004F935F936F937F938F939F93AF93BF93E8
:10183000EF93FF93E091B802F091B902309709F06D
:101840000995FF91EF91BF91AF919F918F917F91FA
:101850006F915F914F913F912F910F900FBE0F901D
:101860001F9018951F920F920FB60F9211242F936D
:101870003F934F935F936F937F938F939F93AF9318
:10188000BF93EF93FF93E091B402F091B5023097CC
:1018900009F00995FF91EF91BF91AF919F918F91C1
:1018A0007F916F915F914F913F912F910F900FBE5C
:1018B0000F901F9018951F920F920FB60F92112440
:1018C0002F933F934F935F936F937F938F939F9348
:1018D000AF93BF93EF93FF93E091B602F091B702FD
:1018E000309709F00995FF91EF91BF91AF919F91CA
:1018F0008F917F916F915F914F913F912F910F90B9
:101900000FBE0F901F9018951F920F920FB60F9257
:1019100011242F933F934F935F936F937F938F93F4
:101920009F93AF93BF93EF93FF93E091B202F09137
:10193000B302309709F00995FF91EF91BF91AF91F4
:101940009F918F917F916F915F914F913F912F91D7
:101950000F900FBE0F901F9018950F931F93E0E804
:10196000F0E080818C7F808301E810E0F8018081C5
:10197000877E8083EFE6F0E080818162808382E071
:1019800066E040E00E94630EF801808180648083FD
:1019900080818260808380818A7F80831F910F9104
:1019A000089584B58C7F84BD84B584BDEEE6F0E0F7
:1019B00080818160808384B58F7C84BD84B584BD43
:1019C00084B58F7384BD84B584BD85B58F7B85BD9B
:1019D00085B58F7785BD089585B5887F85BD85B52B
:1019E000836085BD089585B5887F85BD85B585BD36
:1019F000089586BD8093C202089587BD089588BD6D
:101A0000089587B5089588B508959093BF0280938F
:101A1000BE0208959093BD028093BC0208959093F6
:101A2000BB028093BA020895089508951F920F9201
:101A30000FB60F9211242F933F934F935F936F93A1
:101A40007F938F939F93AF93BF93EF93FF93E09117
:101A5000BE02F091BF02309709F00995FF91EF9116
:101A6000BF91AF919F918F917F916F915F914F91B6
:101A70003F912F910F900FBE0F901F9018951F92BE
:101A80000F920FB60F9211242F933F934F935F93B2
:101A90006F937F938F939F93AF93BF93EF93FF9336
:101AA000E091BC02F091BD02309709F00995FF91D9
:101AB000EF91BF91AF919F918F917F916F915F91C6
:101AC0004F913F912F910F900FBE0F901F9018953F
:101AD0001F920F920FB60F9211242F933F934F93A3
:101AE0005F936F937F938F939F93AF93BF93EF9386
:101AF000FF93E091BA02F091BB02309709F009958B
:101B0000FF91EF91BF91AF919F918F917F916F91D5
:101B10005F914F913F912F910F900FBE0F901F90AB
:101B200018958F929F92AF92BF92CF92DF92EF92D1
:101B3000FF920F931F934A011092C5021092C402A4
:101B4000A0E0B0E0BC01CD010E9411052FE632E11A
:101B500043E85FE30E9423037B018C010E94EC1C9D
:101B60000E9453005B016C0180E090E00E9411052F
:101B7000A80197010E94CB0120E030E040E853E447
:101B80000E9429020E945300B092C102A092C0029A
:101B90009092BB028092BA0266BD6093C2021F910E
:101BA0000F91FF90EF90DF90CF90BF90AF909F90FC
:101BB0008F9008958FB780688FBF08958FB78F7704
:101BC0008FBF0895662319F0613051F405C09093DA
:101BD0007E0380937D03089590937C0380937B0321
:101BE00008951F920F920FB60F9211242F933F93D7
:101BF0004F935F936F937F938F939F93AF93BF9315
:101C0000EF93FF93E0917D03F0917E030995FF919F
:101C1000EF91BF91AF919F918F917F916F915F9164
:101C20004F913F912F910F900FBE0F901F901895DD
:101C30001F920F920FB60F9211242F933F934F9341
:101C40005F936F937F938F939F93AF93BF93EF9324
:101C5000FF93E0917B03F0917C030995FF91EF9155
:101C6000BF91AF919F918F917F916F915F914F91B4
:101C70003F912F910F900FBE0F901F90189582E00B
:101C800063E040E00E94630E82E063E041E00E9476
:101C9000C60EE99AE9E6F0E08081817F8260808368
:101CA000089582E062E040E00E94630E82E062E01C
:101CB00041E00E94C60EE89AE9E6F0E080818C7F60
:101CC0008260808308958130D9F0813020F08230A5
:101CD00009F03FC02AC084B121E030E0062E02C0E6
:101CE000220F331F0A94E2F720952823842F90E0D7
:101CF00002C0880F991F6A95E2F7282B24B908952E
:101D000087B121E030E0062E02C0220F331F0A9473
:101D1000E2F720952823842F90E002C0880F991FB6
:101D20006A95E2F7282B27B908958AB121E030E0BF
:101D3000062E02C0220F331F0A94E2F720952823B3
:101D4000842F90E002C0880F991F6A95E2F7282B34
:101D50002AB90895813061F0813018F08230A9F4F9
:101D60000EC0662311F414B808958FEF84B9089556
:101D7000662311F417B808958FEF87B90895662385
:101D800011F41AB808958FEF8AB908958130D9F007
:101D9000813020F0823009F03FC02AC085B121E0B7
:101DA00030E0062E02C0220F331F0A94E2F720957E
:101DB0002823842F90E002C0880F991F6A95E2F7CC
:101DC000282B25B9089588B121E030E0062E02C005
:101DD000220F331F0A94E2F720952823842F90E0E6
:101DE00002C0880F991F6A95E2F7282B28B9089539
:101DF0008BB121E030E0062E02C0220F331F0A947F
:101E0000E2F720952823842F90E002C0880F991FC5
:101E10006A95E2F7282B2BB90895813039F081308B
:101E200018F0823031F404C065B9089568B9089596
:101E30006BB90895813039F0813018F08230A1F407
:101E40000BC083B101C086B190E002C09595879523
:101E50006A95E2F78170089589B190E002C0959586
:101E600087956A95E2F781700895813039F0813065
:101E700018F0823031F404C083B1089586B108951A
:101E800089B10895813081F0813018F0823009F5F0
:101E900016C025B181E090E002C0880F991F6A95B5
:101EA000E2F7282725B9089528B181E090E002C023
:101EB000880F991F6A95E2F7282728B908952BB152
:101EC00081E090E002C0880F991F6A95E2F7282709
:101ED0002BB90895813049F0813018F0823061F4D7
:101EE00008C085B1809585B9089588B1809588B975
:101EF00008958BB180958BB90895EAE7F0E0808171
:101F0000887F808380818760808380818F7D8083CC
:101F1000ACE7B0E08C918F7180648C938081806895
:101F200080830895EAE7F0E08081887F8083808164
:101F30008760808308959093C7028093C602ECE780
:101F4000F0E08081807E862B8083EAE7F0E080816C
:101F500088648083089580917C00807F8E60809368
:101F60007C0080917A00806480937A0080917A006E
:101F700086FDFCCF2091780030917900C901089549
:101F8000EAE7F0E080818F7780830895EAE7F0E068
:101F900080818F7780830895EAE7F0E08081806810
:101FA000808308951F920F920FB60F9211240F9005
:101FB0000FBE0F901F9018956F927F928F929F92F5
:101FC000AF92BF92CF92DF92EF92FF920F931F9347
:101FD000DF93CF930F92CDB7DEB77B018C0120E06A
:101FE00030E040E85FE30E94CB01A80197010E9426
:101FF00023035B016C01A60195010E9429020F2EAB
:10200000F0E0EF2EF0E0FF2EF0E00F2FF0E01F2FBA
:10201000F02D21E029833B014C0197FA909497F829
:102020009094C801B701A60195010E94FC017B01B3
:102030008C01C601B501A40193010E9429025B0134
:102040006C0189818E5F8983833359F7C801B70199
:10205000A80197010E94FC010F90CF91DF911F9181
:102060000F91FF90EF90DF90CF90BF90AF909F9037
:102070008F907F906F90089580E090E0A0E0B0E0B6
:1020800080939B0390939C03A0939D03B0939E0326
:1020900080939F039093A003A093A103B093A20306
:1020A0008093010490930204A0930304B09304046A
:1020B0008093050490930604A0930704B09308044A
:1020C0001092F803E3EFF3E0119280839183A283EF
:1020D000B3838093970390939803A0939903B0934D
:1020E0009A03EFE8F3E081939193A193B1938083F6
:1020F0009183A283B3831092E6028093E7029093C8
:10210000E802A093E902B093EA0280935F03909300
:102110006003A0936103B093620310926303109273
:102120006403109265031092660310926703109285
:10213000680308950F931F938C016091C8027091FA
:10214000C9028091CA029091CB020E945300F8010B
:1021500060836091CC027091CD028091CE0290910B
:10216000CF020E945300F80161831F910F910895DF
:102170000F931F93182F062F0E94890A1695812FFF
:1021800060E00E949F0A0E94CB0A883199F4802F58
:102190000E94950A0E94CB0A883261F40E94890A43
:1021A000812F61E00E949F0A0E94B50A182F0E94A9
:1021B000910A01C010E0812F1F910F910895EF92B5
:1021C000FF920F931F938C017B018EEA6EEF0E94AA
:1021D000B810F80180838EEA6FEF0E94B810F70103
:1021E00080831F910F91FF90EF900895FF920F93BE
:1021F0001F93182F062FF42E0E94890A812F86958F
:1022000060E00E949F0A0E94CB0A802F0E94950ADC
:102210000E94CB0A8F2D0E94950A0E94CB0A0E9431
:10222000910A1F910F91FF9008958EEA69E00E9434
:10223000B810482F4F778EEA69E00E94F610089593
:102240008EEA69E00E94B810482F40688EEA69E083
:102250000E94F6100895DF92EF92FF920F931F9362
:10226000CF93DF937B018C0120E030E44CE155E417
:102270000E94CF0318164CF51092E60280E090E021
:10228000A0E0B0E08093D9029093DA02A093DB0241
:10229000B093DC021092D0021092D1021092D202BE
:1022A0001092D3021092D4021092D5021092D6024C
:1022B0001092D7021092D802109265031092660312
:1022C0001092670310926803FDC08091E60281308E
:1022D000B9F0813020F0823009F0ECC0CCC0C801E8
:1022E000B70120E030E040EA51E40E94FF03882378
:1022F0000CF4E0C081E08093E6021092D802DAC0CC
:10230000C801B7012091D9023091DA024091DB0275
:102310005091DC020E94CF031816BCF40E947F0784
:102320006093D4027093D5028093D6029093D70223
:10233000C801B7010E945300609365037093660360
:102340008093670390936803B5C02091D4023091C5
:10235000D5024091D6025091D7028091D00290913F
:10236000D102A091D202B091D30279018A01E81A78
:10237000F90A0A0B1B0BC801B7012093D002309356
:10238000D1024093D2025093D302E114F10401052B
:10239000110529F4A0E070E080E060E00CC00E942C
:1023A00011059B01AC0160E070E68AE697E40E94AB
:1023B0002303A62F692FD0906403ED2DF0E0EE0FDC
:1023C000FF1FEE0FFF1FE951FD4F2A2F372F482F18
:1023D000562FC901DA0180839183A283B383C7EEAC
:1023E000D2E00F2EF0E0EF2EF0E0FF2EF0E00F2F06
:1023F000F0E01F2FF02DC801B701299139914991C3
:1024000059910E94FC017B018C0183E0CF35D807F4
:1024100091F7E0925F03F0926003009361031093E1
:1024200062038D2D8F5F6EE10E94321C90936403D6
:10243000809163038E3118F48F5F80936303609102
:10244000630370E0882777FD8095982F0E945F04D2
:102450009B01AC01C801B7010E9423036093C8022D
:102460007093C9028093CA029093CB0282E080935A
:10247000E60281E028C0C801B7012091D90230915D
:10248000DA024091DB025091DC020E942F04882383
:102490002CF48091D8028F5F8093D802C801B701D5
:1024A00020E030E040EA51E40E942F04882314F435
:1024B0001092E602E092D902F092DA020093DB0277
:1024C0001093DC0280E0DF91CF911F910F91FF907C
:1024D000EF90DF900895AF92BF92CF92DF92EF928C
:1024E000FF920F931F93DF93CF93CDB7DEB72C9757
:1024F0000FB6F894DEBF0FBECDBF6B017C01611536
:1025000071058105910521F480E30E9419194CC0E1
:1025100097FF0BC08DE20E941919F094E094D094BB
:10252000C094C11CD11CE11CF11CFE0131968AE053
:10253000DF011D928A95E9F710E05F01F501E10FD7
:10254000F11DFC87EB87C701B6012AE030E040E0CF
:1025500050E00E943E1CAB85BC856C93C701B60160
:102560002AE030E040E050E00E943E1CC901DA0160
:102570006C017D011F5FC114D104E104F104F1F687
:10258000012F0150E02EFF24E7FCF094EA0CFB1C25
:1025900009C0F7018081805D0E94191901500894DB
:1025A000E108F10807FFF5CF2C960FB6F894DEBFCF
:1025B0000FBECDBFCF91DF911F910F91FF90EF9094
:1025C000DF90CF90BF90AF900895EF92FF920F935E
:1025D0001F93DF93CF93CDB7DEB72E970FB6F89446
:1025E000DEBF0FBECDBF0E94890A87E560E00E9472
:1025F0009F0A0E94CB0A883111F587E00E94950A54
:102600000E94CB0A8832D9F40E94890A87E561E0EA
:102610000E949F0A8E010F5F1F4F86E0E82EF12C6B
:10262000EC0EFD1E0E94AB0AF80181938F01EE159E
:10263000FF05C1F70E94B50A8E830E94910A298185
:1026400030E040E050E0A901332722276C8170E0A0
:1026500080E090E0CB0177276627EA80FF2400E046
:1026600010E0102F0F2DFE2CEE242E293F29402B99
:10267000512BEB80FF2400E010E02E293F29402B56
:10268000512BED80FF2400E010E0102F0F2DFE2CC9
:10269000EE246E297F29802B912BEE80FF2400E011
:1026A00010E06E297F29802B912B837090706B87AF
:1026B0007C878D879E87437050702F83388749872A
:1026C0005A87E885F985AA85BC853E2F4F2F5A2F5A
:1026D0007B2F8D859E852E960FB6F894DEBF0FBE9C
:1026E000CDBFCF91DF911F910F91FF90EF90089593
:1026F000DF93CF93CDB7DEB728970FB6F894DEBF40
:102700000FBECDBF0E94E51229833A834B835C83C1
:102710006D837E838F839887A9EFB3E0FE013196A6
:1027200088E001900D928150E1F720E08091F9035B
:102730009091FA03A091FB03B091FC0380529E4458
:10274000A040B04008F021E0822F28960FB6F89400
:10275000DEBF0FBECDBFCF91DF9108958F929F92C4
:10276000AF92BF92DF92EF92FF920F931F93DF938E
:10277000CF93CDB7DEB728970FB6F894DEBF0FBE64
:10278000CDBF8EEA64E00E94B810182F8EEA66E092
:102790000E94B810181B17FD105EDD24A12EBB246B
:1027A000A7FCB0944E010894811C911C6CC10E943E
:1027B0007813882309F466C16091F9037091FA03D4
:1027C0008091FB039091FC030E94110520919B03D3
:1027D00030919C0340919D0350919E030F2EFCEE7F
:1027E000EF2EF1E5FF2EF8E70F2FFFE31F2FF02D5F
:1027F0000E948A1729833A834B835C836D837E838F
:102800008F839887ABE9B3E0F40188E001900D92E3
:102810008150E1F76091FD037091FE038091FF0309
:10282000909100040E94110520910104309102044E
:1028300040910304509104040F2EFCEEEF2EF1E5BD
:10284000FF2EF8E70F2FFFE31F2FF02D0E948A17AE
:1028500029833A834B835C836D837E838F83988740
:10286000A1E0B4E0F40188E001900D928150E1F71D
:1028700060919F037091A0038091A1039091A203A6
:1028800020E030E040EA51E40E94FC0143EA53E0DA
:102890000E94D91760919F037091A0038091A103BA
:1028A0009091A2034FE853E00E9451180E947F07C5
:1028B0000E946B128CE20E9419196091F9037091C9
:1028C000FA038091FB039091FC030E946B128CE24F
:1028D0000E94191960919F037091A0038091A10338
:1028E0009091A2030E94BD040E946B128CE20E9490
:1028F00019196091970370919803809199039091B1
:102900009A030E94BD040E946B128CE20E94191966
:102910006091C8027091C9028091CA029091CB0265
:102920000E94BD040E946B128CE20E9419196091F2
:10293000CC027091CD028091CE029091CF020E9484
:10294000BD040E946B128AE00E94191960919F03D6
:102950007091A0038091A1039091A20320919F0305
:102960003091A0034091A1035091A2030E9429023B
:102970009B01AC016091DD027091DE028091DF026B
:102980009091E0020E94FC016093DD027093DE02F0
:102990008093DF029093E002609105047091060439
:1029A0008091070490910804209105043091060459
:1029B00040910704509108040E9429029B01AC0138
:1029C0006091E1027091E2028091E3029091E40251
:1029D0000E94FC016093E1027093E2028093E302A3
:1029E0009093E4026091970370919803809199030A
:1029F00090919A030E942B11813009F043C080917D
:102A0000E5028F5F8093E5026091DD027091DE0246
:102A10008091DF029091E00220E030E040E05DE351
:102A20000E9429020E944A1D0E94DC0F7B018C013A
:102A30006091E1027091E2028091E3029091E402E0
:102A400020E030E040E05DE30E9429020E944A1D40
:102A50000E94DC0FA80197010E94230320E030E0D0
:102A600040E951EC0E94290220E030E04CED52E4B4
:102A70000E94FC016093CC027093CD028093CE0241
:102A80009093CF02D3948D2D90E08A159B050CF482
:102A90008ECE80E090E0A0E0B0E08093DD029093E5
:102AA000DE02A093DF02B093E0028093E1029093F4
:102AB000E202A093E302B093E40228960FB6F894E2
:102AC000DEBF0FBECDBFCF91DF911F910F91FF9061
:102AD000EF90DF90BF90AF909F908F9008952F92CE
:102AE0003F924F925F926F927F928F929F92AF929E
:102AF000BF92CF92DF92EF92FF920F931F93DF93DB
:102B0000CF93CDB7DEB760970FB6F894DEBF0FBE98
:102B1000CDBF8EEA64E00E94B810182F8EEA66E0FE
:102B20000E94B810181B17FD105ECC24612E77246C
:102B300067FC70941E010894211C311C99E0492EF9
:102B4000512C4C0E5D1E0F2EF0E08F2EF0E09F2ECC
:102B5000F0E0AF2EF0E0BF2EF02D30C10E94E51264
:102B600029833A834B835C836D837E838F8398872D
:102B7000A9EFB3E0F10188E001900D928150E1F7F7
:102B80006091F9037091FA038091FB039091FC032B
:102B90000E94110520919B0330919C0340919D035D
:102BA00050919E030F2EFCEEEF2EF1E5FF2EF8E77D
:102BB0000F2FFFE31F2FF02D0E948A1729873A87D6
:102BC0004B875C876D877E878F87988BABE9B3E0F7
:102BD000F20188E001900D928150E1F76091FD03D0
:102BE0007091FE038091FF03909100040E941105F3
:102BF0002091010430910204409103045091040497
:102C00000F2EFCEEEF2EF1E5FF2EF8E70F2FFFE37E
:102C10001F2FF02D0E948A1729873A874B875C87E0
:102C20006D877E878F87988BA1E0B4E0F20188E002
:102C300001900D928150E1F760919F037091A00384
:102C40008091A1039091A20343EA53E00E94D91717
:102C50004FE853E00E94511860919F037091A003C8
:102C60008091A1039091A20320919F033091A00332
:102C70004091A1035091A2030E9429029B01AC0143
:102C80006091DD027091DE028091DF029091E0029E
:102C90000E94FC016093DD027093DE028093DF02EC
:102CA0009093E002609105047091060480910704FE
:102CB0009091080420910504309106044091070486
:102CC000509108040E9429029B01AC016091E1022D
:102CD0007091E2028091E3029091E4020E94FC0173
:102CE0006093E1027093E2028093E3029093E40226
:102CF00060919703709198038091990390919A0342
:102D00000E942B11813009F058C0D090E502D39475
:102D1000D092E5026091DD027091DE028091DF02C7
:102D20009091E00220E030E040E05DE30E94290263
:102D30000E944A1D0E94DC0F7B018C016091E10220
:102D40007091E2028091E3029091E40220E030E091
:102D500040E05DE30E9429020E944A1D0E94DC0FB0
:102D6000A80197010E94230320E030E040E951ECE4
:102D70000E94290220E030E04CED52E40E94FC0168
:102D80006093CC027093CD028093CE029093CF02D9
:102D900084E0D81691F48092DD029092DE02A09237
:102DA000DF02B092E0028092E1029092E202A092F1
:102DB000E302B092E4021092E502C3948C2D90E0FD
:102DC000861597050CF4CACE60960FB6F894DEBF50
:102DD0000FBECDBFCF91DF911F910F91FF90EF906C
:102DE000DF90CF90BF90AF909F908F907F906F902B
:102DF0005F904F903F902F9008950E947F0A8EEA37
:102E000068E040E70E94F6108EEA69E043E00E9425
:102E1000F6108EEA6AE047E70E94F6108EEA61E15A
:102E200041E20E94F6108EEA6CE04FED0E94F6102F
:102E30008EEA6DE04FED0E94F6108EEA64E040E00D
:102E40000E94F6108EEA65E040E00E94F6108EEADD
:102E500066E040E00E94F61080E090E0A0E0B0E084
:102E600080939B0390939C03A0939D03B0939E0338
:102E700080939F039093A003A093A103B093A20318
:102E80008093010490930204A0930304B09304047C
:102E90008093050490930604A0930704B09308045C
:102EA0001092F803E3EFF3E0119280839183A28301
:102EB000B3838093970390939803A0939903B0935F
:102EC0009A03EFE8F3E081939193A193B193808308
:102ED0009183A283B3831092E6028093E7029093DA
:102EE000E802A093E902B093EA0280935F03909313
:102EF0006003A0936103B093620310926303109286
:102F00006403109265031092660310926703109297
:102F1000680308956F927F928F929F92AF92BF92B3
:102F2000CF92DF92EF92FF920F931F93DF93CF9395
:102F3000CDB7DEB728970FB6F894DEBF0FBECDBF72
:102F40005B016C0139014A01C801B7010E942902E5
:102F50009B01AC01C601B5010E94FC017B018C0103
:102F6000A40193010E94CB016D837E838F83988798
:102F7000E982FA820B831C8329813A814B815C812F
:102F80006D817E818F81988528960FB6F894DEBF7B
:102F90000FBECDBFCF91DF911F910F91FF90EF90AA
:102FA000DF90CF90BF90AF909F908F907F906F9069
:102FB00008956F927F928F929F92BF92CF92DF92ED
:102FC000EF92FF920F931F93CF93DF933B014C013E
:102FD000EA0121E5E22EF12CE40EF51E90E5C92E62
:102FE000D12CC40ED51EF601B0800B2D10E0000FC1
:102FF000111F000F111F040F151FF7016081718150
:1030000082819381F80120813181428153810E9424
:10301000CB01F7016083718382839383F80160821F
:10302000718282829382A40193010E94FC01F701C4
:1030300060837183828393838B2D8F5F64E10E9411
:10304000321CF6019083FE01EB5AFF4F80818431E0
:1030500010F48F5F8083CB5ADF4F688170E0882740
:1030600077FD8095982F0E945F049B01AC019A9197
:103070008A917A916A910E9423039B01AC01C40159
:10308000B3010E94CB01DF91CF911F910F91FF906F
:10309000EF90DF90CF90BF909F908F907F906F9038
:1030A00008958F929F92AF92BF92CF92DF92EF924C
:1030B000FF920F931F934A01FA01E480F580068185
:1030C0001781E082F182028313832BE73FE14BE714
:1030D0005EE30E9429025B016C01C801B70123E491
:1030E00030E742E05FE30E9429029B01AC01C60188
:1030F000B5010E94FC019B01AC01F401648375835E
:1031000086839783C801B7010E94FC01F4016087A0
:103110007187828793871F910F91FF90EF90DF90C7
:10312000CF90BF90AF909F908F90089582E066E01F
:1031300040E00E94C60E80E991E020E931E0F9010B
:103140003197F1F70197D9F782E066E041E00E94FC
:10315000C60E08950E94A9090895CF93DF93EC014C
:1031600082E066E040E00E94C60E80E991E020E93E
:1031700031E0F9013197F1F70197D9F7CE010E94BB
:10318000A90982E066E041E00E94C60EDF91CF917E
:1031900008958CE591E00E94AD18089585E691E0D0
:1031A0000E94AD188CE691E00E94AD1882E791E094
:1031B0000E94AD1808950E94BA090895DF93CF9335
:1031C00000D00F92CDB7DEB782E066E041E00E940A
:1031D000630E82E066E040E00E94C60E80E991E066
:1031E00020E931E0F9013197F1F70197D9F78AE742
:1031F00091E00E94A9090E94BA0989830E94BA0934
:103200008A831B82CE0101966EE771E00E94B21C98
:103210009C0180E0232B09F081E00F900F900F902C
:10322000CF91DF9108950E94D80908950E94D30993
:10323000089590E00E94A109089588E090E00E941E
:10324000630A089580E060E00E94420F089580E0E4
:1032500060E041E00E94630E08950E94AB0FA0E081
:10326000B0E0BC01CD010E9411059B01AC016DECE9
:103270007CEC8CE893E40E94230320E030E048ECEF
:1032800052E40E94290220E030E04BEE53E40E9419
:10329000CB010E945300DC01CB0108950E947D0FF9
:1032A00008950F931F93182F062F0E94890A0E94DA
:1032B000CB0A883011F080E01FC083E560E00E94F7
:1032C0009F0A0E94CB0A883111F081E015C0812F3E
:1032D0000E94950A0E94CB0A883211F082E00CC04D
:1032E000802F0E94950A0E94CB0A883211F083E059
:1032F00003C00E94910A89E01F910F9108958DE209
:1033000060E00E945119089585E260E00E94511921
:1033100086E260E00E9451198DE268E30E94511933
:1033200008952F923F924F925F926F927F928F9269
:103330009F92AF92BF92CF92DF92EF92FF920F9344
:103340001F93DF93CF93CDB7DEB728970FB6F894CE
:10335000DEBF0FBECDBF98878F830E94890A0E946F
:10336000CB0A883009F04AC083E560E00E949F0ADA
:103370000E94CB0A883109F041C082E30E94950A7D
:103380000E94CB0A8832D1F50E94890A0E94CB0A9A
:103390008031A1F583E561E00E949F0A0E94CB0A7B
:1033A000803461F50E94AB0A89830E94CB0A803584
:1033B00029F50E94AB0A8A830E94CB0A8035F1F47A
:1033C0000E94AB0A8B830E94CB0A8035B9F40E941D
:1033D000AB0A8C830E94CB0A803581F40E94AB0A31
:1033E0008D830E94CB0A803549F40E94B50A8E83F2
:1033F0000E94CB0A883511F40E94910A7C8160E01A
:103400002B8130E0622B732B882777FD8095982FD6
:103410000E945F045B016C017E8160E02D8130E0E1
:10342000622B732B882777FD8095982F0E945F046D
:103430003B014C017A8160E0298130E0622B732BE3
:10344000882777FD8095982F0E945F042FE632E150
:1034500043E85BE30E9429022AE038EE4CE151E4A4
:103460000E9429027B018C01EF81F88560837183C2
:1034700082839383C601B5012FE632E143E85BE323
:103480000E9429022AE038EE4CE151E40E94290210
:103490005B016C01EF81F885648375838683978374
:1034A000C401B3012FE632E143E85BE30E94290245
:1034B0002AE038EE4CE151E40E9429021B012C0164
:1034C000EF81F8856087718782879387C801B7018C
:1034D000A80197010E9429023B014C01C601B501D8
:1034E000A60195010E9429025B016C01C201B10194
:1034F000A20191010E9429027B018C01C401B30148
:10350000A60195010E94FC01A80197010E94FC01FF
:103510000E944A1DEF81F8856487758786879787A3
:1035200028960FB6F894DEBF0FBECDBFCF91DF91C6
:103530001F910F91FF90EF90DF90CF90BF90AF90D1
:103540009F908F907F906F905F904F903F902F90C3
:1035500008950E947F0A81E36BE00E9451198DE279
:1035600068E00E94511988E360E80E9451190895AB
:10357000CF93DF930E94DE0D0E9420110E947F19DD
:10358000C0E9D1E00E94221988E893E1FE01319759
:10359000F1F70197D9F7F6CF2F923F924F925F92B2
:1035A0006F927F928F929F92AF92BF92CF92DF9253
:1035B000EF92FF920F931F93DF93CF93CDB7DEB7B8
:1035C0002F970FB6F894DEBF0FBECDBF0E941D1916
:1035D0000E948E070E948A0B0E94A91A0E94FD1663
:1035E0000E944E190E948D090E9427190E94DA0D2F
:1035F0001E010894211C311C35E0832E912C21E8FA
:10360000A22E21E0B22E96E0492E512C4C0E5D1ECA
:103610008BE0682E712C6C0E7D1E8091A002823092
:1036200071F0833018F48130D1F706C0853009F489
:10363000DBC08630A1F7DBC00E94AE13EECF89E677
:1036400093E00E949119C0906903D0906A03E090C2
:103650006B03F0906C03C701B6010E94BD042DB747
:103660003EB72A5030400FB6F8943EBF0FBE2DBF74
:103670000DB71EB70F5F1F4FEDB7FEB73282218225
:10368000F80193828282B582A48277836683882739
:1036900077FD8095982F0E945F049B01AC01C701C4
:1036A000B6010E94CB0120E030E048EC52E40E94D9
:1036B00029020E94BD04F801718760870E94BB1C2B
:1036C000C0906D03D0906E03E0906F03F090700394
:1036D000C701B6010E94BD040DB71EB70F5F1F4F93
:1036E000EDB7FEB752824182F80193828282B582A1
:1036F000A48277836683882777FD8095982F0E9420
:103700005F049B01AC01C701B6010E94CB0120E020
:1037100030E048EC52E40E9429020E94BD04F80106
:10372000718760870E94BB1CC0907103D0907203A8
:10373000E0907303F0907403C701B6010E94BD04CA
:103740000DB71EB70F5F1F4FEDB7FEB772826182D4
:10375000F80193828282B582A48277836683882768
:1037600077FD8095982F0E945F049B01AC01C701F3
:10377000B6010E94CB0120E030E048EC52E40E9408
:1037800029020E94BD04F801718760870E94BB1C5A
:103790002DB73EB7265F3F4F0FB6F8943EBF0FBE22
:1037A0002DBF89E891E00E94AA188CE891E00E9460
:1037B000AA18C1010E94AA188CE20E9419198FE868
:1037C00091E00E94AA18C2010E94AA188CE20E94ED
:1037D000191982E991E00E94AA18C3010E94AA184F
:1037E0008AE00E94191919CF0E94B81A16CF0E94B8
:1037F000B20B85E991E00E94AA1889E793E00E9444
:103800009A100E942D1969E074E04AE00E94FD07B9
:103810000E947F0743E154E029E10E94D90780918B
:10382000790390917A036CE274E04EE10E94B10753
:1038300083E194E069E074E04CE254E02AE434E08F
:1038400008EC0E9450098AE494E00E94AA188AE0D9
:103850000E9419190E94A90B0E943C1031E030937C
:10386000A002DBCE991B79E004C0991F961708F0DF
:10387000961B881F7A95C9F78095089597FB092EA6
:1038800005260ED057FD04D014D00AD0001C38F401
:1038900050954095309521953F4F4F4F5F4F08957C
:1038A000F6F790958095709561957F4F8F4F9F4F5C
:1038B0000895A1E21A2EAA1BBB1BFD010DC0AA1F71
:1038C000BB1FEE1FFF1FA217B307E407F50720F089
:1038D000A21BB30BE40BF50B661F771F881F991F04
:1038E0001A9469F760957095809590959B01AC014D
:1038F000BD01CF0108952F923F924F925F926F9238
:103900007F928F929F92AF92BF92CF92DF92EF926F
:10391000FF920F931F93CF93DF93CDB7DEB7CA1BF0
:10392000DB0B0FB6F894DEBF0FBECDBF09942A881B
:10393000398848885F846E847D848C849B84AA84C3
:10394000B984C884DF80EE80FD800C811B81AA8150
:10395000B981CE0FD11D0FB6F894DEBF0FBECDBF1B
:10396000ED010895FB01DC018D910190801901109A
:10397000D9F3990B0895AEE0B0E0E1ECFCE10C94D2
:10398000891C0D891E898F89988D97FF02C080E060
:1039900090E801979E838D831A83098386E08C8348
:1039A0009E01255E3F4FCE010196698D7A8DA9015A
:1039B0000E94881D4D815E8157FD0AC02F81388588
:1039C000421753070CF49A01020F131FF8011082DB
:1039D0002E96E4E00C94A51C3BD080F09F3740F479
:1039E00091110EF44DC060E070E080E89FE308950F
:1039F00026F01B16611D711D811D01C01BC088238F
:103A000071F4772321F09850872B762F07C0662317
:103A100011F499270DC09051862B70E060E02AF0D8
:103A20009A95660F771F881FDAF7880F9695879506
:103A300097F908959F3F31F0915020F4879577953D
:103A40006795B795880F911D9695879597F9089575
:103A5000EED2A0F0BEE7B91788F4BB279F3860F418
:103A60001616B11D672F782F8827985FF7CF869598
:103A700077956795B11D93959639C8F30895E894A5
:103A8000BB2766277727CB0197F9089511F40EF429
:103A9000BCC2D0CFCCD2D0F39923D9F3CEF39F5769
:103AA000550B87FFB5D20024A0E640EA900180586C
:103AB0005695979528F4805C660F771F881F20F035
:103AC00026173707480730F4621B730B840B202935
:103AD00031294A2BA69517940794202531254A278A
:103AE00058F7660F771F881F20F0261737074807FB
:103AF00030F4620B730B840B200D311D411DA0951A
:103B000081F7B901842F9158880F9695879508956C
:103B1000ABE0B0E0EEE8FDE10C947B1C3C012B0136
:103B20005A01FC0117821682838181FD03C06FEF69
:103B30007FEFC6C19AE0892E1E010894211C311C1A
:103B4000F3012381F20123FD859123FF81912F0150
:103B5000882309F4B2C1853239F423FD859123FF0E
:103B600081912F01853229F490E0B3010E947B1FDF
:103B7000E7CF982FFF24EE249924FFE1FF15D0F022
:103B80009B3269F09C3228F4903259F0933291F4D0
:103B90000EC09D3249F0903369F441E024C052E0F8
:103BA000F52A84E0F82A28C098E0F92A25C0E0E147
:103BB000FE2A22C0F7FC29C0892F80538A3070F476
:103BC000F6FE05C0989C902C1124980E15C0E89C18
:103BD000E02C1124E80EF0E2FF2A0EC09E3229F4F8
:103BE000F6FC6BC140E4F42A07C09C3619F450E897
:103BF000F52A02C0983649F4F20123FD959123FF7E
:103C000091912F01992309F0B8CF892F85548330E2
:103C100018F08052833038F444E050E0A40EB51E12
:103C20005FE359830FC0933631F0933779F09335C2
:103C300009F056C020C0F5018081898342E050E040
:103C4000A40EB51E610101E010E012C0F501C080B4
:103C5000D180F6FC03C06FEF7FEF02C0692D70E0EA
:103C600042E050E0A40EB51EC6010E94701F8C01F8
:103C70005FE7F52214C0F501C080D180F6FC03C0D7
:103C80006FEF7FEF02C0692D70E042E050E0A40EBC
:103C9000B51EC6010E94651F8C0150E8F52AF3FE8F
:103CA00007C01AC080E290E0B3010E947B1FEA9433
:103CB0008E2D90E008171907A8F30EC0F601F7FC47
:103CC0008591F7FE81916F0190E0B3010E947B1F07
:103CD000E110EA94015010400115110579F7EAC08E
:103CE000943611F0993669F5F7FE08C0F501208188
:103CF00031814281538184E090E00AC0F5018081E6
:103D000091819C01442737FD4095542F82E090E03B
:103D1000A80EB91E9FE6F92257FF09C0509540959D
:103D2000309521953F4F4F4F5F4FE0E8FE2ACA0183
:103D3000B901A1012AE030E00E94A71FD82ED218B5
:103D400040C0953729F41F2D1F7E2AE030E01DC0AA
:103D50001F2D197F9F3661F0903720F4983509F0B8
:103D6000ACC00FC0903739F0983709F0A6C004C036
:103D700028E030E00AC0106114FD146020E130E05A
:103D800004C014FD166020E132E017FF08C0F50101
:103D9000608171818281938144E050E008C0F50127
:103DA00080819181BC0180E090E042E050E0A40E6F
:103DB000B51EA1010E94A71FD82ED2188FE7F82E9A
:103DC000F122F6FE0BC05EEFF522D91438F4F4FEB2
:103DD00007C0F2FC05C08FEEF82202C01D2D01C005
:103DE000192DF4FE0DC0FE01ED0DF11D8081803313
:103DF00019F499EEF92208C01F5FF2FE05C003C056
:103E00008F2D867809F01F5F0F2DF3FC14C0F0FE94
:103E10000FC01E1510F09D2C0BC09D2C9E0C911AEE
:103E20001E2D06C080E290E0B3010E947B1F1F5F41
:103E30001E15C0F304C01E1510F4E11A01C0EE24D3
:103E400004FF0FC080E390E0B3010E947B1F02FFDC
:103E50001DC001FD03C088E790E00EC088E590E03A
:103E60000BC0802F867891F001FF02C08BE201C069
:103E700080E2F7FC8DE290E0B3010E947B1F06C058
:103E800080E390E0B3010E947B1F9A94D914C0F3A1
:103E9000DA94F101ED0DF11D808190E0B3010E94F3
:103EA0007B1FDD20A9F706C080E290E0B3010E94ED
:103EB0007B1FEA94EE20C1F743CEF3016681778140
:103EC000CB012B96E2E10C94971CFC01059061500C
:103ED00070400110D8F7809590958E0F9F1F089520
:103EE000FC016150704001900110D8F780959095C9
:103EF0008E0F9F1F08950F931F93CF93DF938C0115
:103F0000EB018B8181FF1BC082FF0DC02E813F81A1
:103F10008C819D812817390764F4E881F981019328
:103F2000F983E88306C0E885F985802F0995892BF8
:103F300031F48E819F8101969F838E8302C00FEFA3
:103F40001FEFC801DF91CF911F910F910895FA01E2
:103F5000AA27283051F1203181F1E8946F936E7FC8
:103F60006E5F7F4F8F4F9F4FAF4FB1E03ED0B4E0B9
:103F70003CD0670F781F891F9A1FA11D680F791FFA
:103F80008A1F911DA11D6A0F711D811D911DA11D0B
:103F900020D009F468943F912AE0269F112430191B
:103FA000305D3193DEF6CF010895462F4770405DB6
:103FB0004193B3E00FD0C9F7F6CF462F4F70405D65
:103FC0004A3318F0495D31FD4052419302D0A9F7C0
:103FD000EACFB4E0A6959795879577956795BA95BA
:103FE000C9F700976105710508959B01AC010A2E80
:103FF00006945795479537952795BA95C9F7620F57
:10400000731F841F951FA01D08959FEF80EC0895D6
:1040100091505040660F771F881FD2F7089557FDC3
:104020009058440F551F59F05F3F71F04795880F26
:1040300097FB991F61F09F3F79F0879508951216BD
:1040400013061406551FF2CF4695F1DF08C0161669
:1040500017061806991FF1CF86957105610508941A
:064060000895F894FFCF63
:104066007B2248223A25642C2253223A25647D007D
:10407600256C750025640025642E25303275007B7D
:104086002278223A25732C2279223A25732C227A19
:10409600223A25737D007B2241223A222573222C67
:1040A6002243223A25732C2244223A25732C224598
:1040B600223A2573207D00313231320041542B5390
:1040C6004C4545500041542B4655330041542B5026
:1040D600360041542B433030310041542B004F4BB6
:1040E6000025642E2530327500410A00583A0059E1
:1040F6003A005A3A00580A0000000000000000008A
:104106000001020203030303040404040404040478
:104116000505050505050505050505050505050549
:104126000606060606060606060606060606060629
:104136000606060606060606060606060606060619
:1041460007070707070707070707070707070707F9
:1041560007070707070707070707070707070707E9
:1041660007070707070707070707070707070707D9
:1041760007070707070707070707070707070707C9
:1041860008080808080808080808080808080808A9
:104196000808080808080808080808080808080899
:1041A6000808080808080808080808080808080889
:1041B6000808080808080808080808080808080879
:1041C6000808080808080808080808080808080869
:1041D6000808080808080808080808080808080859
:1041E6000808080808080808080808080808080849
:1041F6000808080808080808080808080808080839
:024206000100B5
:00000001FF
